{
  "_format": "hh-sol-artifact-1",
  "contractName": "BlockreachContract",
  "sourceName": "contracts/BlockreachContract.sol",
  "abi": [
    {
      "inputs": [],
      "stateMutability": "nonpayable",
      "type": "constructor"
    },
    {
      "anonymous": false,
      "inputs": [
        {
          "indexed": false,
          "internalType": "address",
          "name": "sender",
          "type": "address"
        },
        {
          "indexed": false,
          "internalType": "string",
          "name": "handle",
          "type": "string"
        },
        {
          "indexed": false,
          "internalType": "string",
          "name": "message",
          "type": "string"
        },
        {
          "indexed": false,
          "internalType": "uint256",
          "name": "value",
          "type": "uint256"
        }
      ],
      "name": "InquirySent",
      "type": "event"
    },
    {
      "inputs": [
        {
          "internalType": "string",
          "name": "_handle",
          "type": "string"
        }
      ],
      "name": "claimProfile",
      "outputs": [],
      "stateMutability": "nonpayable",
      "type": "function"
    },
    {
      "inputs": [
        {
          "internalType": "string",
          "name": "_handle",
          "type": "string"
        }
      ],
      "name": "getProfile",
      "outputs": [
        {
          "components": [
            {
              "internalType": "string",
              "name": "handle",
              "type": "string"
            },
            {
              "internalType": "address",
              "name": "owner",
              "type": "address"
            },
            {
              "internalType": "bool",
              "name": "isVerified",
              "type": "bool"
            }
          ],
          "internalType": "struct BlockreachContract.Profile",
          "name": "",
          "type": "tuple"
        }
      ],
      "stateMutability": "view",
      "type": "function"
    },
    {
      "inputs": [
        {
          "internalType": "uint256",
          "name": "",
          "type": "uint256"
        }
      ],
      "name": "inquiries",
      "outputs": [
        {
          "internalType": "address",
          "name": "sender",
          "type": "address"
        },
        {
          "internalType": "string",
          "name": "handle",
          "type": "string"
        },
        {
          "internalType": "string",
          "name": "message",
          "type": "string"
        }
      ],
      "stateMutability": "view",
      "type": "function"
    },
    {
      "inputs": [],
      "name": "owner",
      "outputs": [
        {
          "internalType": "address",
          "name": "",
          "type": "address"
        }
      ],
      "stateMutability": "view",
      "type": "function"
    },
    {
      "inputs": [
        {
          "internalType": "string",
          "name": "",
          "type": "string"
        }
      ],
      "name": "profiles",
      "outputs": [
        {
          "internalType": "string",
          "name": "handle",
          "type": "string"
        },
        {
          "internalType": "address",
          "name": "owner",
          "type": "address"
        },
        {
          "internalType": "bool",
          "name": "isVerified",
          "type": "bool"
        }
      ],
      "stateMutability": "view",
      "type": "function"
    },
    {
      "inputs": [
        {
          "internalType": "string",
          "name": "_handle",
          "type": "string"
        },
        {
          "internalType": "string",
          "name": "_message",
          "type": "string"
        }
      ],
      "name": "sendInquiry",
      "outputs": [],
      "stateMutability": "payable",
      "type": "function"
    },
    {
      "inputs": [
        {
          "internalType": "string",
          "name": "_handle",
          "type": "string"
        }
      ],
      "name": "verifyProfile",
      "outputs": [],
      "stateMutability": "nonpayable",
      "type": "function"
    }
  ],
  "bytecode": "0x608060405234801561001057600080fd5b50336000806101000a81548173ffffffffffffffffffffffffffffffffffffffff021916908373ffffffffffffffffffffffffffffffffffffffff1602179055506115a6806100606000396000f3fe6080604052600436106100705760003560e01c80636b8e890d1161004e5780636b8e890d1461011a5780638da5cb5b14610136578063c798199d14610161578063cba521e21461018a57610070565b80630de98693146100755780632a23820e146100b25780632d76e577146100f1575b600080fd5b34801561008157600080fd5b5061009c60048036038101906100979190610f97565b6101c9565b6040516100a99190611114565b60405180910390f35b3480156100be57600080fd5b506100d960048036038101906100d4919061116c565b610304565b6040516100e8939291906111f2565b60405180910390f35b3480156100fd57600080fd5b5061011860048036038101906101139190610f97565b61046e565b005b610134600480360381019061012f9190611237565b6106df565b005b34801561014257600080fd5b5061014b6109cf565b60405161015891906112af565b60405180910390f35b34801561016d57600080fd5b5061018860048036038101906101839190610f97565b6109f3565b005b34801561019657600080fd5b506101b160048036038101906101ac9190610f97565b610c6c565b6040516101c0939291906112d9565b60405180910390f35b6101d1610d61565b6002826040516101e19190611353565b908152602001604051809103902060405180606001604052908160008201805461020a90611399565b80601f016020809104026020016040519081016040528092919081815260200182805461023690611399565b80156102835780601f1061025857610100808354040283529160200191610283565b820191906000526020600020905b81548152906001019060200180831161026657829003601f168201915b505050505081526020016001820160009054906101000a900473ffffffffffffffffffffffffffffffffffffffff1673ffffffffffffffffffffffffffffffffffffffff1673ffffffffffffffffffffffffffffffffffffffff1681526020016001820160149054906101000a900460ff1615151515815250509050919050565b6001818154811061031457600080fd5b90600052602060002090600302016000915090508060000160009054906101000a900473ffffffffffffffffffffffffffffffffffffffff169080600101805461035d90611399565b80601f016020809104026020016040519081016040528092919081815260200182805461038990611399565b80156103d65780601f106103ab576101008083540402835291602001916103d6565b820191906000526020600020905b8154815290600101906020018083116103b957829003601f168201915b5050505050908060020180546103eb90611399565b80601f016020809104026020016040519081016040528092919081815260200182805461041790611399565b80156104645780601f1061043957610100808354040283529160200191610464565b820191906000526020600020905b81548152906001019060200180831161044757829003601f168201915b5050505050905083565b60006002826040516104809190611353565b90815260200160405180910390206040518060600160405290816000820180546104a990611399565b80601f01602080910402602001604051908101604052809291908181526020018280546104d590611399565b80156105225780601f106104f757610100808354040283529160200191610522565b820191906000526020600020905b81548152906001019060200180831161050557829003601f168201915b505050505081526020016001820160009054906101000a900473ffffffffffffffffffffffffffffffffffffffff1673ffffffffffffffffffffffffffffffffffffffff1673ffffffffffffffffffffffffffffffffffffffff1681526020016001820160149054906101000a900460ff16151515158152505090508060400151156105e3576040517f08c379a00000000000000000000000000000000000000000000000000000000081526004016105da90611416565b60405180910390fd5b81816000018190525033816020019073ffffffffffffffffffffffffffffffffffffffff16908173ffffffffffffffffffffffffffffffffffffffff16815250506000816040019015159081151581525050806002836040516106469190611353565b90815260200160405180910390206000820151816000019080519060200190610670929190610d9a565b5060208201518160010160006101000a81548173ffffffffffffffffffffffffffffffffffffffff021916908373ffffffffffffffffffffffffffffffffffffffff16021790555060408201518160010160146101000a81548160ff0219169083151502179055509050505050565b60006002836040516106f19190611353565b908152602001604051809103902060405180606001604052908160008201805461071a90611399565b80601f016020809104026020016040519081016040528092919081815260200182805461074690611399565b80156107935780601f1061076857610100808354040283529160200191610793565b820191906000526020600020905b81548152906001019060200180831161077657829003601f168201915b505050505081526020016001820160009054906101000a900473ffffffffffffffffffffffffffffffffffffffff1673ffffffffffffffffffffffffffffffffffffffff1673ffffffffffffffffffffffffffffffffffffffff1681526020016001820160149054906101000a900460ff16151515158152505090508060400151610853576040517f08c379a000000000000000000000000000000000000000000000000000000000815260040161084a90611482565b60405180910390fd5b60003411156108a857806020015173ffffffffffffffffffffffffffffffffffffffff166108fc349081150290604051600060405180830381858888f193505050501580156108a6573d6000803e3d6000fd5b505b600060405180606001604052803373ffffffffffffffffffffffffffffffffffffffff168152602001858152602001848152509050600181908060018154018082558091505060019003906000526020600020906003020160009091909190915060008201518160000160006101000a81548173ffffffffffffffffffffffffffffffffffffffff021916908373ffffffffffffffffffffffffffffffffffffffff160217905550602082015181600101908051906020019061096c929190610d9a565b506040820151816002019080519060200190610989929190610d9a565b5050507fa62edfc8d76eaab424f33c232253ff59796f0ee287babebd890fc1b98b34b7f5338585346040516109c194939291906114b1565b60405180910390a150505050565b60008054906101000a900473ffffffffffffffffffffffffffffffffffffffff1681565b60008054906101000a900473ffffffffffffffffffffffffffffffffffffffff1673ffffffffffffffffffffffffffffffffffffffff163373ffffffffffffffffffffffffffffffffffffffff1614610a81576040517f08c379a0000000000000000000000000000000000000000000000000000000008152600401610a7890611550565b60405180910390fd5b6000600282604051610a939190611353565b9081526020016040518091039020604051806060016040529081600082018054610abc90611399565b80601f0160208091040260200160405190810160405280929190818152602001828054610ae890611399565b8015610b355780601f10610b0a57610100808354040283529160200191610b35565b820191906000526020600020905b815481529060010190602001808311610b1857829003601f168201915b505050505081526020016001820160009054906101000a900473ffffffffffffffffffffffffffffffffffffffff1673ffffffffffffffffffffffffffffffffffffffff1673ffffffffffffffffffffffffffffffffffffffff1681526020016001820160149054906101000a900460ff1615151515815250509050600181604001901515908115158152505080600283604051610bd39190611353565b90815260200160405180910390206000820151816000019080519060200190610bfd929190610d9a565b5060208201518160010160006101000a81548173ffffffffffffffffffffffffffffffffffffffff021916908373ffffffffffffffffffffffffffffffffffffffff16021790555060408201518160010160146101000a81548160ff0219169083151502179055509050505050565b600281805160208101820180518482526020830160208501208183528095505050505050600091509050806000018054610ca590611399565b80601f0160208091040260200160405190810160405280929190818152602001828054610cd190611399565b8015610d1e5780601f10610cf357610100808354040283529160200191610d1e565b820191906000526020600020905b815481529060010190602001808311610d0157829003601f168201915b5050505050908060010160009054906101000a900473ffffffffffffffffffffffffffffffffffffffff16908060010160149054906101000a900460ff16905083565b604051806060016040528060608152602001600073ffffffffffffffffffffffffffffffffffffffff1681526020016000151581525090565b828054610da690611399565b90600052602060002090601f016020900481019282610dc85760008555610e0f565b82601f10610de157805160ff1916838001178555610e0f565b82800160010185558215610e0f579182015b82811115610e0e578251825591602001919060010190610df3565b5b509050610e1c9190610e20565b5090565b5b80821115610e39576000816000905550600101610e21565b5090565b6000604051905090565b600080fd5b600080fd5b600080fd5b600080fd5b6000601f19601f8301169050919050565b7f4e487b7100000000000000000000000000000000000000000000000000000000600052604160045260246000fd5b610ea482610e5b565b810181811067ffffffffffffffff82111715610ec357610ec2610e6c565b5b80604052505050565b6000610ed6610e3d565b9050610ee28282610e9b565b919050565b600067ffffffffffffffff821115610f0257610f01610e6c565b5b610f0b82610e5b565b9050602081019050919050565b82818337600083830152505050565b6000610f3a610f3584610ee7565b610ecc565b905082815260208101848484011115610f5657610f55610e56565b5b610f61848285610f18565b509392505050565b600082601f830112610f7e57610f7d610e51565b5b8135610f8e848260208601610f27565b91505092915050565b600060208284031215610fad57610fac610e47565b5b600082013567ffffffffffffffff811115610fcb57610fca610e4c565b5b610fd784828501610f69565b91505092915050565b600081519050919050565b600082825260208201905092915050565b60005b8381101561101a578082015181840152602081019050610fff565b83811115611029576000848401525b50505050565b600061103a82610fe0565b6110448185610feb565b9350611054818560208601610ffc565b61105d81610e5b565b840191505092915050565b600073ffffffffffffffffffffffffffffffffffffffff82169050919050565b600061109382611068565b9050919050565b6110a381611088565b82525050565b60008115159050919050565b6110be816110a9565b82525050565b600060608301600083015184820360008601526110e1828261102f565b91505060208301516110f6602086018261109a565b50604083015161110960408601826110b5565b508091505092915050565b6000602082019050818103600083015261112e81846110c4565b905092915050565b6000819050919050565b61114981611136565b811461115457600080fd5b50565b60008135905061116681611140565b92915050565b60006020828403121561118257611181610e47565b5b600061119084828501611157565b91505092915050565b6111a281611088565b82525050565b600082825260208201905092915050565b60006111c482610fe0565b6111ce81856111a8565b93506111de818560208601610ffc565b6111e781610e5b565b840191505092915050565b60006060820190506112076000830186611199565b818103602083015261121981856111b9565b9050818103604083015261122d81846111b9565b9050949350505050565b6000806040838503121561124e5761124d610e47565b5b600083013567ffffffffffffffff81111561126c5761126b610e4c565b5b61127885828601610f69565b925050602083013567ffffffffffffffff81111561129957611298610e4c565b5b6112a585828601610f69565b9150509250929050565b60006020820190506112c46000830184611199565b92915050565b6112d3816110a9565b82525050565b600060608201905081810360008301526112f381866111b9565b90506113026020830185611199565b61130f60408301846112ca565b949350505050565b600081905092915050565b600061132d82610fe0565b6113378185611317565b9350611347818560208601610ffc565b80840191505092915050565b600061135f8284611322565b915081905092915050565b7f4e487b7100000000000000000000000000000000000000000000000000000000600052602260045260246000fd5b600060028204905060018216806113b157607f821691505b6020821081036113c4576113c361136a565b5b50919050565b7f50726f66696c65206d75737420626520756e7665726966696564000000000000600082015250565b6000611400601a836111a8565b915061140b826113ca565b602082019050919050565b6000602082019050818103600083015261142f816113f3565b9050919050565b7f50726f66696c65206d7573742062652076657269666965640000000000000000600082015250565b600061146c6018836111a8565b915061147782611436565b602082019050919050565b6000602082019050818103600083015261149b8161145f565b9050919050565b6114ab81611136565b82525050565b60006080820190506114c66000830187611199565b81810360208301526114d881866111b9565b905081810360408301526114ec81856111b9565b90506114fb60608301846114a2565b95945050505050565b7f4f6e6c79206f776e65722063616e207665726966792070726f66696c65000000600082015250565b600061153a601d836111a8565b915061154582611504565b602082019050919050565b600060208201905081810360008301526115698161152d565b905091905056fea264697066735822122025b0b52aa011213ce961051980464e0aca0683fe1f22a423c94303981cf042cb64736f6c634300080d0033",
  "linkReferences": {},
  "deployedLinkReferences": {}
}