{
  "_format": "hh-sol-artifact-1",
  "contractName": "BlockreachContract",
  "sourceName": "contracts/BlockreachContract.sol",
  "abi": [
    {
      "inputs": [],
      "stateMutability": "nonpayable",
      "type": "constructor"
    },
    {
      "anonymous": false,
      "inputs": [
        {
          "indexed": false,
          "internalType": "address",
          "name": "sender",
          "type": "address"
        },
        {
          "indexed": false,
          "internalType": "string",
          "name": "handle",
          "type": "string"
        },
        {
          "indexed": false,
          "internalType": "string",
          "name": "message",
          "type": "string"
        },
        {
          "indexed": false,
          "internalType": "uint256",
          "name": "value",
          "type": "uint256"
        }
      ],
      "name": "InquirySent",
      "type": "event"
    },
    {
      "inputs": [
        {
          "internalType": "string",
          "name": "_handle",
          "type": "string"
        }
      ],
      "name": "claimProfile",
      "outputs": [],
      "stateMutability": "nonpayable",
      "type": "function"
    },
    {
      "inputs": [
        {
          "internalType": "string",
          "name": "_handle",
          "type": "string"
        }
      ],
      "name": "getProfile",
      "outputs": [
        {
          "components": [
            {
              "internalType": "string",
              "name": "handle",
              "type": "string"
            },
            {
              "internalType": "address",
              "name": "owner",
              "type": "address"
            },
            {
              "internalType": "bool",
              "name": "isVerified",
              "type": "bool"
            }
          ],
          "internalType": "struct BlockreachContract.Profile",
          "name": "",
          "type": "tuple"
        }
      ],
      "stateMutability": "view",
      "type": "function"
    },
    {
      "inputs": [
        {
          "internalType": "uint256",
          "name": "",
          "type": "uint256"
        }
      ],
      "name": "inquiries",
      "outputs": [
        {
          "internalType": "address",
          "name": "sender",
          "type": "address"
        },
        {
          "internalType": "string",
          "name": "handle",
          "type": "string"
        },
        {
          "internalType": "string",
          "name": "message",
          "type": "string"
        },
        {
          "internalType": "uint256",
          "name": "value",
          "type": "uint256"
        }
      ],
      "stateMutability": "view",
      "type": "function"
    },
    {
      "inputs": [],
      "name": "owner",
      "outputs": [
        {
          "internalType": "address",
          "name": "",
          "type": "address"
        }
      ],
      "stateMutability": "view",
      "type": "function"
    },
    {
      "inputs": [
        {
          "internalType": "string",
          "name": "",
          "type": "string"
        }
      ],
      "name": "profiles",
      "outputs": [
        {
          "internalType": "string",
          "name": "handle",
          "type": "string"
        },
        {
          "internalType": "address",
          "name": "owner",
          "type": "address"
        },
        {
          "internalType": "bool",
          "name": "isVerified",
          "type": "bool"
        }
      ],
      "stateMutability": "view",
      "type": "function"
    },
    {
      "inputs": [
        {
          "internalType": "string",
          "name": "_handle",
          "type": "string"
        },
        {
          "internalType": "string",
          "name": "_message",
          "type": "string"
        }
      ],
      "name": "sendInquiry",
      "outputs": [],
      "stateMutability": "payable",
      "type": "function"
    },
    {
      "inputs": [
        {
          "internalType": "string",
          "name": "_handle",
          "type": "string"
        }
      ],
      "name": "verifyProfile",
      "outputs": [],
      "stateMutability": "nonpayable",
      "type": "function"
    }
  ],
  "bytecode": "0x608060405234801561001057600080fd5b50336000806101000a81548173ffffffffffffffffffffffffffffffffffffffff021916908373ffffffffffffffffffffffffffffffffffffffff160217905550611578806100606000396000f3fe6080604052600436106100705760003560e01c80636b8e890d1161004e5780636b8e890d1461011b5780638da5cb5b14610137578063c798199d14610162578063cba521e21461018b57610070565b80630de98693146100755780632a23820e146100b25780632d76e577146100f2575b600080fd5b34801561008157600080fd5b5061009c60048036038101906100979190610fae565b6101ca565b6040516100a9919061112b565b60405180910390f35b3480156100be57600080fd5b506100d960048036038101906100d49190611183565b610305565b6040516100e99493929190611218565b60405180910390f35b3480156100fe57600080fd5b5061011960048036038101906101149190610fae565b610475565b005b6101356004803603810190610130919061126b565b6106e6565b005b34801561014357600080fd5b5061014c6109e6565b60405161015991906112e3565b60405180910390f35b34801561016e57600080fd5b5061018960048036038101906101849190610fae565b610a0a565b005b34801561019757600080fd5b506101b260048036038101906101ad9190610fae565b610c83565b6040516101c19392919061130d565b60405180910390f35b6101d2610d78565b6002826040516101e29190611387565b908152602001604051809103902060405180606001604052908160008201805461020b906113cd565b80601f0160208091040260200160405190810160405280929190818152602001828054610237906113cd565b80156102845780601f1061025957610100808354040283529160200191610284565b820191906000526020600020905b81548152906001019060200180831161026757829003601f168201915b505050505081526020016001820160009054906101000a900473ffffffffffffffffffffffffffffffffffffffff1673ffffffffffffffffffffffffffffffffffffffff1673ffffffffffffffffffffffffffffffffffffffff1681526020016001820160149054906101000a900460ff1615151515815250509050919050565b6001818154811061031557600080fd5b90600052602060002090600402016000915090508060000160009054906101000a900473ffffffffffffffffffffffffffffffffffffffff169080600101805461035e906113cd565b80601f016020809104026020016040519081016040528092919081815260200182805461038a906113cd565b80156103d75780601f106103ac576101008083540402835291602001916103d7565b820191906000526020600020905b8154815290600101906020018083116103ba57829003601f168201915b5050505050908060020180546103ec906113cd565b80601f0160208091040260200160405190810160405280929190818152602001828054610418906113cd565b80156104655780601f1061043a57610100808354040283529160200191610465565b820191906000526020600020905b81548152906001019060200180831161044857829003601f168201915b5050505050908060030154905084565b60006002826040516104879190611387565b90815260200160405180910390206040518060600160405290816000820180546104b0906113cd565b80601f01602080910402602001604051908101604052809291908181526020018280546104dc906113cd565b80156105295780601f106104fe57610100808354040283529160200191610529565b820191906000526020600020905b81548152906001019060200180831161050c57829003601f168201915b505050505081526020016001820160009054906101000a900473ffffffffffffffffffffffffffffffffffffffff1673ffffffffffffffffffffffffffffffffffffffff1673ffffffffffffffffffffffffffffffffffffffff1681526020016001820160149054906101000a900460ff16151515158152505090508060400151156105ea576040517f08c379a00000000000000000000000000000000000000000000000000000000081526004016105e19061144a565b60405180910390fd5b81816000018190525033816020019073ffffffffffffffffffffffffffffffffffffffff16908173ffffffffffffffffffffffffffffffffffffffff168152505060008160400190151590811515815250508060028360405161064d9190611387565b90815260200160405180910390206000820151816000019080519060200190610677929190610db1565b5060208201518160010160006101000a81548173ffffffffffffffffffffffffffffffffffffffff021916908373ffffffffffffffffffffffffffffffffffffffff16021790555060408201518160010160146101000a81548160ff0219169083151502179055509050505050565b60006002836040516106f89190611387565b9081526020016040518091039020604051806060016040529081600082018054610721906113cd565b80601f016020809104026020016040519081016040528092919081815260200182805461074d906113cd565b801561079a5780601f1061076f5761010080835404028352916020019161079a565b820191906000526020600020905b81548152906001019060200180831161077d57829003601f168201915b505050505081526020016001820160009054906101000a900473ffffffffffffffffffffffffffffffffffffffff1673ffffffffffffffffffffffffffffffffffffffff1673ffffffffffffffffffffffffffffffffffffffff1681526020016001820160149054906101000a900460ff1615151515815250509050806040015161085a576040517f08c379a0000000000000000000000000000000000000000000000000000000008152600401610851906114b6565b60405180910390fd5b60003411156108af57806020015173ffffffffffffffffffffffffffffffffffffffff166108fc349081150290604051600060405180830381858888f193505050501580156108ad573d6000803e3d6000fd5b505b600060405180608001604052803373ffffffffffffffffffffffffffffffffffffffff168152602001858152602001848152602001348152509050600181908060018154018082558091505060019003906000526020600020906004020160009091909190915060008201518160000160006101000a81548173ffffffffffffffffffffffffffffffffffffffff021916908373ffffffffffffffffffffffffffffffffffffffff1602179055506020820151816001019080519060200190610979929190610db1565b506040820151816002019080519060200190610996929190610db1565b506060820151816003015550507fa62edfc8d76eaab424f33c232253ff59796f0ee287babebd890fc1b98b34b7f5338585346040516109d89493929190611218565b60405180910390a150505050565b60008054906101000a900473ffffffffffffffffffffffffffffffffffffffff1681565b60008054906101000a900473ffffffffffffffffffffffffffffffffffffffff1673ffffffffffffffffffffffffffffffffffffffff163373ffffffffffffffffffffffffffffffffffffffff1614610a98576040517f08c379a0000000000000000000000000000000000000000000000000000000008152600401610a8f90611522565b60405180910390fd5b6000600282604051610aaa9190611387565b9081526020016040518091039020604051806060016040529081600082018054610ad3906113cd565b80601f0160208091040260200160405190810160405280929190818152602001828054610aff906113cd565b8015610b4c5780601f10610b2157610100808354040283529160200191610b4c565b820191906000526020600020905b815481529060010190602001808311610b2f57829003601f168201915b505050505081526020016001820160009054906101000a900473ffffffffffffffffffffffffffffffffffffffff1673ffffffffffffffffffffffffffffffffffffffff1673ffffffffffffffffffffffffffffffffffffffff1681526020016001820160149054906101000a900460ff1615151515815250509050600181604001901515908115158152505080600283604051610bea9190611387565b90815260200160405180910390206000820151816000019080519060200190610c14929190610db1565b5060208201518160010160006101000a81548173ffffffffffffffffffffffffffffffffffffffff021916908373ffffffffffffffffffffffffffffffffffffffff16021790555060408201518160010160146101000a81548160ff0219169083151502179055509050505050565b600281805160208101820180518482526020830160208501208183528095505050505050600091509050806000018054610cbc906113cd565b80601f0160208091040260200160405190810160405280929190818152602001828054610ce8906113cd565b8015610d355780601f10610d0a57610100808354040283529160200191610d35565b820191906000526020600020905b815481529060010190602001808311610d1857829003601f168201915b5050505050908060010160009054906101000a900473ffffffffffffffffffffffffffffffffffffffff16908060010160149054906101000a900460ff16905083565b604051806060016040528060608152602001600073ffffffffffffffffffffffffffffffffffffffff1681526020016000151581525090565b828054610dbd906113cd565b90600052602060002090601f016020900481019282610ddf5760008555610e26565b82601f10610df857805160ff1916838001178555610e26565b82800160010185558215610e26579182015b82811115610e25578251825591602001919060010190610e0a565b5b509050610e339190610e37565b5090565b5b80821115610e50576000816000905550600101610e38565b5090565b6000604051905090565b600080fd5b600080fd5b600080fd5b600080fd5b6000601f19601f8301169050919050565b7f4e487b7100000000000000000000000000000000000000000000000000000000600052604160045260246000fd5b610ebb82610e72565b810181811067ffffffffffffffff82111715610eda57610ed9610e83565b5b80604052505050565b6000610eed610e54565b9050610ef98282610eb2565b919050565b600067ffffffffffffffff821115610f1957610f18610e83565b5b610f2282610e72565b9050602081019050919050565b82818337600083830152505050565b6000610f51610f4c84610efe565b610ee3565b905082815260208101848484011115610f6d57610f6c610e6d565b5b610f78848285610f2f565b509392505050565b600082601f830112610f9557610f94610e68565b5b8135610fa5848260208601610f3e565b91505092915050565b600060208284031215610fc457610fc3610e5e565b5b600082013567ffffffffffffffff811115610fe257610fe1610e63565b5b610fee84828501610f80565b91505092915050565b600081519050919050565b600082825260208201905092915050565b60005b83811015611031578082015181840152602081019050611016565b83811115611040576000848401525b50505050565b600061105182610ff7565b61105b8185611002565b935061106b818560208601611013565b61107481610e72565b840191505092915050565b600073ffffffffffffffffffffffffffffffffffffffff82169050919050565b60006110aa8261107f565b9050919050565b6110ba8161109f565b82525050565b60008115159050919050565b6110d5816110c0565b82525050565b600060608301600083015184820360008601526110f88282611046565b915050602083015161110d60208601826110b1565b50604083015161112060408601826110cc565b508091505092915050565b6000602082019050818103600083015261114581846110db565b905092915050565b6000819050919050565b6111608161114d565b811461116b57600080fd5b50565b60008135905061117d81611157565b92915050565b60006020828403121561119957611198610e5e565b5b60006111a78482850161116e565b91505092915050565b6111b98161109f565b82525050565b600082825260208201905092915050565b60006111db82610ff7565b6111e581856111bf565b93506111f5818560208601611013565b6111fe81610e72565b840191505092915050565b6112128161114d565b82525050565b600060808201905061122d60008301876111b0565b818103602083015261123f81866111d0565b9050818103604083015261125381856111d0565b90506112626060830184611209565b95945050505050565b6000806040838503121561128257611281610e5e565b5b600083013567ffffffffffffffff8111156112a05761129f610e63565b5b6112ac85828601610f80565b925050602083013567ffffffffffffffff8111156112cd576112cc610e63565b5b6112d985828601610f80565b9150509250929050565b60006020820190506112f860008301846111b0565b92915050565b611307816110c0565b82525050565b6000606082019050818103600083015261132781866111d0565b905061133660208301856111b0565b61134360408301846112fe565b949350505050565b600081905092915050565b600061136182610ff7565b61136b818561134b565b935061137b818560208601611013565b80840191505092915050565b60006113938284611356565b915081905092915050565b7f4e487b7100000000000000000000000000000000000000000000000000000000600052602260045260246000fd5b600060028204905060018216806113e557607f821691505b6020821081036113f8576113f761139e565b5b50919050565b7f50726f66696c65206d75737420626520756e7665726966696564000000000000600082015250565b6000611434601a836111bf565b915061143f826113fe565b602082019050919050565b6000602082019050818103600083015261146381611427565b9050919050565b7f50726f66696c65206d7573742062652076657269666965640000000000000000600082015250565b60006114a06018836111bf565b91506114ab8261146a565b602082019050919050565b600060208201905081810360008301526114cf81611493565b9050919050565b7f4f6e6c79206f776e65722063616e207665726966792070726f66696c65000000600082015250565b600061150c601d836111bf565b9150611517826114d6565b602082019050919050565b6000602082019050818103600083015261153b816114ff565b905091905056fea26469706673582212205c314c007de27e6861fb2000e1b51ed604c33259a310232c602f8d8062e5c5a964736f6c634300080d0033",
  "linkReferences": {},
  "deployedLinkReferences": {}
}